:020000040000fa
:080000000002040000000000f2
:020000040000fa
:04000800c80200002a
:020000040000fa
:04000c002a0b0000bb
:020000040000fa
:040010003c0b0000a5
:020000040000fa
:04001400320b0000ab
:020000040000fa
:04001800440b000095
:020000040000fa
:04001c00c802000016
:020000040000fa
:04002000c802000012
:020000040000fa
:04002400c80200000e
:020000040000fa
:04002800c80200000a
:020000040000fa
:04002c00c802000006
:020000040000fa
:04003000c802000002
:020000040000fa
:04003400c8020000fe
:020000040000fa
:04003800c8020000fa
:020000040000fa
:04003c00c8020000f6
:020000040000fa
:04004000c8020000f2
:020000040000fa
:04004400c8020000ee
:020000040000fa
:04004800c8020000ea
:020000040000fa
:04004c00c8020000e6
:020000040000fa
:04005000c8020000e2
:020000040000fa
:04005400c8020000de
:020000040000fa
:04005800c8020000da
:020000040000fa
:04005c00c8020000d6
:020000040000fa
:04006000c8020000d2
:020000040000fa
:04006400c8020000ce
:020000040000fa
:04006800c8020000ca
:020000040000fa
:04006c00c8020000c6
:020000040000fa
:04007000c8020000c2
:020000040000fa
:04007400c8020000be
:020000040000fa
:04007800c8020000ba
:020000040000fa
:04007c00c8020000b6
:020000040000fa
:04008000c8020000b2
:020000040000fa
:04008400c8020000ae
:020000040000fa
:04008800c8020000aa
:020000040000fa
:04008c00c8020000a6
:020000040000fa
:04009000c8020000a2
:020000040000fa
:04009400c80200009e
:020000040000fa
:04009800c80200009a
:020000040000fa
:04009c00c802000096
:020000040000fa
:0400a000c802000092
:020000040000fa
:0400a400c80200008e
:020000040000fa
:0400a800c80200008a
:020000040000fa
:0400ac00c802000086
:020000040000fa
:0400b000c802000082
:020000040000fa
:0400b400c80200007e
:020000040000fa
:0400b800c80200007a
:020000040000fa
:0400bc00c802000076
:020000040000fa
:0400c000c802000072
:020000040000fa
:0400c400c80200006e
:020000040000fa
:0400c800c80200006a
:020000040000fa
:0400cc00c802000066
:020000040000fa
:0400d000c802000062
:020000040000fa
:0400d400c80200005e
:020000040000fa
:0400d800c80200005a
:020000040000fa
:0400dc00c802000056
:020000040000fa
:0400e000c802000052
:020000040000fa
:0400e400c80200004e
:020000040000fa
:0400e800c80200004a
:020000040000fa
:0400ec00c802000046
:020000040000fa
:0400f000c802000042
:020000040000fa
:0400f400c80200003e
:020000040000fa
:0400f800c80200003a
:020000040000fa
:0400fc00c802000036
:020000040000fa
:04010000c802000031
:020000040000fa
:04010400c80200002d
:020000040000fa
:04010800c802000029
:020000040000fa
:04010c00c802000025
:020000040000fa
:04011000c802000021
:020000040000fa
:04011400c80200001d
:020000040000fa
:04011800c802000019
:020000040000fa
:04011c00c802000015
:020000040000fa
:04012000c802000011
:020000040000fa
:04012400c80200000d
:020000040000fa
:04012800c802000009
:020000040000fa
:04012c00c802000005
:020000040000fa
:04013000c802000001
:020000040000fa
:04013400c8020000fd
:020000040000fa
:04013800c8020000f9
:020000040000fa
:04013c00c8020000f5
:020000040000fa
:04014000c8020000f1
:020000040000fa
:04014400c8020000ed
:020000040000fa
:04014800c8020000e9
:020000040000fa
:04020800c802000028
:020000040000fa
:04020c00c802000024
:020000040000fa
:04021000c802000020
:020000040000fa
:04021400c80200001c
:020000040000fa
:04021800c802000018
:020000040000fa
:04021c00c802000014
:020000040000fa
:04022000c802000010
:020000040000fa
:04022400c80200000c
:020000040000fa
:04022800c802000008
:020000040000fa
:04022c00c802000004
:020000040000fa
:04023000c802000000
:020000040000fa
:04023400c8020000fc
:020000040000fa
:04023800c8020000f8
:020000040000fa
:04023c00c8020000f4
:020000040000fa
:04024000c8020000f0
:020000040000fa
:04024400c8020000ec
:020000040000fa
:04024800c8020000e8
:020000040000fa
:04024c00c8020000e4
:020000040000fa
:04025000c8020000e0
:020000040000fa
:04025400c8020000dc
:020000040000fa
:04025800c8020000d8
:020000040000fa
:04025c00c8020000d4
:020000040000fa
:04026000c8020000d0
:020000040000fa
:04026400c8020000cc
:020000040000fa
:04026800c8020000c8
:020000040000fa
:04026c00c8020000c4
:020000040000fa
:04027000c8020000c0
:020000040000fa
:04027400c8020000bc
:020000040000fa
:04027800c8020000b8
:020000040000fa
:04027c00c8020000b4
:020000040000fa
:04028000c8020000b0
:020000040000fa
:04028400c8020000ac
:020000040000fa
:04028800c8020000a8
:020000040000fa
:04028c00c8020000a4
:020000040000fa
:04029000c8020000a0
:020000040000fa
:04029400c80200009c
:020000040000fa
:04029800c802000098
:020000040000fa
:04029c00c802000094
:020000040000fa
:0402a000c802000090
:020000040000fa
:0402a400c80200008c
:020000040000fa
:0402a800c802000088
:020000040000fa
:0402ac00c802000084
:020000040000fa
:0402b000c802000080
:020000040000fa
:0402b400c80200007c
:020000040000fa
:0402b800c802000078
:020000040000fa
:0402bc00c802000074
:020000040000fa
:0402c000c802000070
:020000040000fa
:0402c400c80200006c
:020000040000fa
:0402c800c802000068
:020000040000fa
:0402cc00c802000064
:020000040000fa
:0402d000c802000060
:020000040000fa
:0402d400c80200005c
:020000040000fa
:0402d800c802000058
:020000040000fa
:0402dc00c802000054
:020000040000fa
:0402e000c802000050
:020000040000fa
:0402e400c80200004c
:020000040000fa
:0402e800c802000048
:020000040000fa
:0402ec00c802000044
:020000040000fa
:0402f000c802000040
:020000040000fa
:0402f400c80200003c
:020000040000fa
:0402f800c802000038
:020000040000fa
:0402fc00c802000034
:020000040000fa
:04030000c80200002f
:020000040000fa
:04030400c80200002b
:020000040000fa
:04030800c802000027
:020000040000fa
:04030c00c802000023
:020000040000fa
:04031000c80200001f
:020000040000fa
:04031400c80200001b
:020000040000fa
:04031800c802000017
:020000040000fa
:04031c00c802000013
:020000040000fa
:04032000c80200000f
:020000040000fa
:04032400c80200000b
:020000040000fa
:04032800c802000007
:020000040000fa
:04032c00c802000003
:020000040000fa
:04033000c8020000ff
:020000040000fa
:04033400c8020000fb
:020000040000fa
:04033800c8020000f7
:020000040000fa
:04033c00c8020000f3
:020000040000fa
:04034000c8020000ef
:020000040000fa
:04034400c8020000eb
:020000040000fa
:04034800c8020000e7
:020000040000fa
:10040000af8220000e7f22000e0188000000000055
:10041000000020000000e000020032000001200087
:1004200020028800140007005b0007000000e000c5
:1004300003003a00a0b720000100200002003700ae
:100440000000200001002000810f70000100320038
:1004500014000700000020000000e000020032004d
:100460000000020000000000780a02000000000006
:100470000040da000000fe004440a9000000200017
:100480000000e0000300320000002000a00188000e
:100490004440a800000006008a1f78008b1f7800e7
:1004a0000000060091018800800478000000eb0045
:1004b0001a003700e284440032a0b4009905ba0063
:1004c000e284440032a0b4009906ba00e2844400f9
:1004d00032a0b4000006eb00476fde00fd07b2005b
:1004e000636ce10003003a00ebff07000000eb0043
:1004f0000a003700606ce10004003a00005deb0088
:100500008b05e900fdff3e00040037006168e10053
:10051000010032000086eb000b00070019c7ba008b
:100520001905ba000e04e00003003a000a00e000da
:10053000e0ff3a0000000600fe07b2009e018800be
:100540008a047800f5ff3700395dba008b05e900b1
:100550000c003200295dba008b05e900080032006a
:100560000c00e00003003a00e284440032a0b40032
:10057000f5ff370019ddba008b05e900faff3a00f4
:100580008904e800e184440032a0b40000000600c1
:100590000040da000000fe000000050003f0a200a9
:1005a000889fbe008a9fbe008c1f7800d200070083
:1005b000d90033006450e1004f0032006420e100b4
:1005c0005200320003826c0007003b000905d00096
:1005d0000306d000820f54000c065d0002003900b3
:1005e00002003200890178000306780085825500f8
:1005f00004003d000003fd008103fd008502ea00c8
:100600008b854200840f720002003b0060001000e6
:10061000e08018006011b8000005eb007a28e100c6
:100620000a00390006007800c75ddd00f707b20058
:10063000878075002d003700828171000a017800e3
:10064000610560008180d1000080d3008502e9004f
:10065000f9ff3b00060440008784480002003b008d
:1006600060041400e0841c000988a3000700320025
:100670008a81710082817100610164008904d10066
:100680000884d3008b05e800170037000978a30021
:1006900013003a000b00e000130034008b05e90062
:1006a0000804440089844c000a4474000978a300bb
:1006b0000d003a000b00e000070034008b05e90054
:1006c0000804440089844c0001003a000b0020001b
:1006d0000978a300f7ff32000001eb0002003700a9
:1006e000828171000a017800480007000cf0a70021
:1006f00001f0a000910037006420e10002003a0000
:10070000838f6c00910033000801be000200be0020
:100710008a0037000001be00620007000470a700d5
:1007200003f0a1006509b100160032000d0035008c
:100730006828e10006003500f0ff2f00f1ff2700d8
:100740000300e00013003b0001002800000005004a
:1007500000004000818048008502e900fcff3a006b
:1007600008003700f88f420002003c008000eb00d8
:10077000000005008100d1000080d3008502e80060
:10078000fcff3a000300e00002003b0060001000a4
:10079000e0801800000006000001be0041000700d4
:1007a0000470a70003f0a10003f8a30013003a00af
:1007b0006509b10010003200090035006928e10028
:1007c0000200350001002800000005000000400084
:1007d000818048008502e900fcff3a000000060025
:1007e000f88f4200050035008100d1000080d30061
:1007f0008502e800fcff3a00000006008000eb00e4
:10080000000005006011b80087003700810020005b
:10081000618055000b003d000b00200061fe2f00a1
:100820000100e1001d00340082817100610164005b
:100830008904d1000884d3000000e800faff3a00e0
:10084000710020006100640003007000020060007d
:100850000900320061044400e0844c000988a500ce
:10086000050032008b05e8006808e10002003a004c
:100870008904d1000884d300f20f20000258e1005f
:1008800005003d00c75ddd00f907b20089807500f5
:1008900008007800000006000bf827008b007800a5
:1008a00000000500c70ade00f107b200f50fb20034
:1008b00008003200e1cf4200020032000170a000c7
:1008c00024000500810f70000100320004080500bb
:1008d00044000500810f700002003a00140005007a
:1008e0008502e9000000400081c04800fcff3b0099
:1008f0000170a000240005000004be00e9ff07000d
:100900000003be000405be000200be00e5ff0700b4
:10091000844f7500000006000200be006450e10034
:10092000050036006420e100020036000968a300db
:1009300001003a000800be000160a0004f067800e8
:100940004f05be004f04be0000000600f0ff2f0060
:10095000f1ff2700f9ff3700889fbe008a9fbe0085
:100960008c1f7800e4ff0700ebff330003866c0068
:100970006450e100240032006420e10027003200ce
:100980006150e100220032006120e10021003200cc
:100990008b854200eb07b1000134b800003ab80083
:1009a0000804420089844a00013ab8000030b800c7
:1009b0008880400009014a00040033000000400024
:1009c00081804800020149008b05e900c909dd006a
:1009d000830170000100320013002000c814de0003
:1009e0004814dd004709de001200b200c808de002e
:1009f0000884700085ff070001f0a1000cf0a7003b
:100a000001f0a000cdff37006120e100cfff3200f0
:100a10000801be000200be00f7ff37006150e10090
:100a2000fcff3a00c9ff3700889fbe008a9fbe00c6
:100a300000827000040271000482710026003200fe
:100a40000004be000200be006011b8006b09200067
:100a5000950220000182cf000a0039000541b10053
:100a60000082cf00070039000541b1000982cf00a4
:100a7000040039000541b1000882cf0001003900af
:100a80000541b10005425200120032000a003b004d
:100a900082817100610164008100d1000080d30077
:100aa0008984d3000884d3008b05e8000442e80061
:100ab000f7ff3a00070037000804440089844c001f
:100ac00000004800818048008b05e9000442e900ed
:100ad000f9ff3a004dff07004f05be004f04be006e
:040ae000000006000c
:020000040000fa
:100ae4000000fa00c002a9000080fa00000006001d
:100af4000600fa00204798003147980042479800c2
:100b04001e03070070002000000f78000c0037005f
:100b14002e4090008080fb001e0078000088de00dc
:100b240061006000004078000004e0000200320030
:100b34000303070001003700090307001e0fe90043
:100b44001e0078000000e000f1ff3d00700020006e
:100b5400000f78000c0037003e4090008080fb00be
:100b64001e0078000088de0061006000004078000c
:100b74000004e00002003200f10207000100370027
:100b8400f70207001e0fe9001e0078000000e000d5
:100b9400f1ff3d0070002000000f78000c003700ca
:100ba4004e4090008080fb001e0078000088de002c
:100bb40061006000004078000004e00002003200a0
:100bc400df02070001003700e50207001e0fe900fd
:100bd4001e0078000000e000f1ff3d000080fa00f4
:100be400000006000200fa00004f78001ec0ea0070
:100bf400004178008040eb001e40780003000700ad
:100c0400310007000080fa00000006000400fa002a
:100c1400004f780011479800224798001e80fb007f
:100c24008000eb00c001dd00020020001e409000a7
:100c34000082fb008002eb004828dd00c820de00b3
:100c4400810070004820dd00000171008181710085
:100c54002e4090000080fb008000eb00000071003b
:100c6400818071000080fa00000006000400fa0090
:100c7400008fbe001e00be004008de000040780069
:100c84000080fa00000006000400fa00008fbe0095
:100c94001e00be004809dd004800de0000007100af
:100ca400c808de00004078000080fa00000006005a
:100cb4000400fa00008fbe001e0078000040780097
:100cc4000080fa00000006000400fa00889fbe00bd
:100cd400008fbe00a90207001e00be00f4ff07003b
:100ce400804478001e00be00e7ff0700004478003f
:100cf4001e00be00ddff070009417800884078002f
:100d04007bff07004f04be000080fa0000000600cd
:100d14000200fa00004f78001ecfea0040c5b3007d
:100d24009e40780080cf50000d003e001e407800a9
:100d34006300b90000007800004178009e4078000c
:100d4400d00f20000088b90000007800004078002f
:100d54000040e9008040eb00acff070023003700af
:100d640090cab3009e40780080cf500010003e002f
:100d7400b0cab3001e4f40009e407800d00f200040
:100d84000088b90000007800004078000041e900c4
:100d94001e4078006300b90000007800004078002d
:100da400804078000040eb0098ff07000f003700f8
:100db40061c5b3001ecf40009e407800d00f2000d4
:100dc4000088b90000007800004078008041e90004
:100dd4001e4078006300b9000000780000407800ed
:100de4000041eb008340780088ff07000080fa0090
:100df400000006000000fa008021ef008221ef00cd
:100e0400e0002000200c8800200c800000407800c6
:100e1400674060000080fb00204088000080fa00ea
:100e2400000006000000fa00200480006400600056
:100e34000000e000010032008440a9000080fa00b4
:100e4400000006000000fa00204080000040780006
:100e5400674060000080fb0067006000220c800097
:100e640081ff2f008100610001007000200c8800c8
:100e74000080fa00000006000000fa00210c800047
:100e840080ff2f0000806000200c88000080fa00a2
:100e9400000006000200fa00000f78009e007800af
:100ea400110c88000080fa00000006000400fa001b
:100eb400000f7800110798009e007800110c88003c
:100ec4009e009000010c88000080fa0000000600db
:100ed4000400fa00000f7800110798009e007800c3
:100ee400110c88009e009000010c88000080fa001c
:100ef400000006000400fa00000f780011079800b3
:100f04009e007800110c88009e009000010c88005f
:100f14000080fa00000006000200fa00000f7800ca
:100f24009e007800010c88000080fa000000060092
:100f34000200fa00000f78009e007800110c88006f
:100f44000080fa00000006000000fa00200480007f
:100f54004200de00614060000080fb0000f0a7005a
:100f64000000ea000000ea004f00de0000407800c4
:100f74000080fa00000006000400fa001007980040
:100f84001e0090000000e0000a003a00200c8000df
:100f94004400de00614060000080fb0000f0a70018
:100fa4000000ea000000ea004f00de00004f780075
:100fb40001003700000000001e4078000080fa00a5
:100fc400000006000000fa000621ef000080eb009c
:100fd40060088800000028008008880060822000e3
:100fe4008040eb00014878000080fa000000060011
:100ff4000000fa0021048000000820000080600046
:101004000000e000090032007082200010407800e7
:101014008040e8007082200001487800608220004f
:1010240011c0b3000148780084e0a9000080fa00f0
:10103400000006000200fa00000f78009e0078000d
:1010440061088800608220008040eb00014878003d
:101054000080fa00000006000000fa00600880002a
:101064000080fa00000006000200fa00000f780079
:101074009e00780031088800608220008040eb00e8
:10108400014878000080fa00000006000000fa0021
:10109400300880000080fa00000006000000fa001a
:1010a400608220008040eb000148780011e1a80034
:1010b4000080fa00000006000000fa0011e1a90017
:1010c4000080fa00000006000200fa00608220009e
:1010d400104f78001e4078000004e0000300320046
:1010e400608220008040eb00014878001e407800b8
:1010f4000080fa00000006000000fa007082200060
:10110400104078000080fb000080fa000000060018
:101114000000fa00708220008040eb000148780053
:101124000080fa00000006000000fa000a21ef0027
:1011340000c4290070088800000128009008880075
:10114400808220008040eb00014878000080fa0093
:10115400000006000000fa002104800000102000b6
:10116400008060000000e00009003200908220004e
:10117400104078008040e800908220000148780008
:101184008082200011c0b300014878008500a900c6
:101194000080fa00000006000200fa00000f780048
:1011a4009e00780071088800808220008040eb0057
:1011b400014878000080fa00000006000000fa00f0
:1011c400700880000080fa00000006000200fa00a7
:1011d400000f78009e00780051088800808220006b
:1011e4008040eb00014878000080fa00000006000f
:1011f4000000fa00500880000080fa000000060099
:101204000000fa00808220008040eb000148780052
:1012140013e1a8000080fa00000006000000fa00b4
:1012240013e1a9000080fa00000006000200fa00a1
:1012340080822000104f78001e4078000004e000f7
:1012440003003200808220008040eb0001487800d7
:101254001e4078000080fa00000006000000fa003a
:1012640090822000104078000080fb000080fa008b
:10127400000006000000fa00908220008040eb008d
:10128400014878000080fa00000006000000fa001f
:10129400c902a900c922a80042c7a900713480006c
:1012a40000fe2f00008060009000b30070348800be
:1012b40042c7a80042e1a800110a800080ff2f0065
:1012c400008060000000a000100a88001021ef00d8
:1012d4000080eb006008880081088000f0fc2f008b
:1012e400008060000040a000800888000080fa00b0
:1012f400000006000800fa00cb02a90011e1a900d1
:10130400110a800080ff2f0000806000100a88000e
:1013140002003700000a8000000f7800100a8000e5
:10132400680060000000e000faff3a000621ef00c8
:101334000421ef000021ef00800c20001008880039
:101344008460a90011e1a800110a800080ff2f0029
:10135400008060000000a000100a8800cb02a800f2
:1013640000002800200888000000000020048000fd
:10137400680060000000e000fcff3200cb02a9001e
:101384004006200098000700010a80001107980019
:10139400010a800021079800ae0090001e00900012
:1013a40000805000300798003e0090008000eb0061
:1013b40013fd0700e2142d0013c1230065fd07008f
:1013c40022d22f002301240073fc07000200200016
:1013d400031224005ffd0700eefc070030079800ad
:1013e4003e0090000080fa00000006000000fa00b1
:1013f40010082000100a8800100a800000407800bd
:10140400674060000080fb00004088000080fa0014
:10141400000006000000fa00200480006200600062
:101424000000e000010032008420a9000080fa00de
:10143400000006000000fa00004080000040780030
:10144400674060000080fb0067006000120a8000b3
:1014540081ff2f008100610001007000100a8800e4
:101464000080fa00000006000000fa00110a800063
:1014740080ff2f0000806000100a88000080fa00be
:10148400000006000000fa00000a80000080fa0054
:10149400000006000000fa00100a80004400de008c
:1014a400614060000080fb0000f0a7000000ea003b
:1014b4000000ea004f00de00004078000080fa00df
:1014c400000006000000fa00100a800068006000b6
:1014d40000f0a7000000ea000000e9004f00de0071
:1014e400004078000080fa00000006000000fa00c6
:1014f400680007000200070007000700feff37002e
:101504000000fa00a000070060ff070074fd070058
:101514000080fa00000006000400fa0075ff0700ce
:101524001007980000000000000000000000000008
:101534009e00900030062000808f500016003e0070
:101544001e0090006a0050008000eb00acfc070015
:10155400a24c250053032400fefc07006cfc07008a
:10156400000f78001e0078000000e00002003c003c
:101574000000eb00000f78001e0078008040780027
:101584001e0078000040780000c0ea000041eb0033
:1015940057fd0700040037000041eb0080c0eb005a
:1015a4000040eb0052fd07000080fa000000060036
:1015b4000000fa0010002800200888000021ef0035
:1015c400f0e72300100888008460a90000000000f0
:1015d40020048000680060000000e000fcff32008e
:1015e4000080fa00000006000200fa00000f7800f4
:1015f40001003700eeff07001e00780000f0a7008e
:101604000000ea000000ea004f00de00004078001d
:101614001e0fe9000004e000f6ff3a000080fa0023
:1016240000000600000f78009e007800114088003a
:10163400ffff37000000fa00608020008007780078
:10164400e0812000000188000080fa00000006000c
:101654003600f8008020a9000000eb00f1ff07002d
:101664003600f800f3ff07008040a90010002000b6
:10167400ecff07003600f8008060a900200020007d
:10168400e8ff07003600f8008080a9003000200041
:10169400e4ff07000000fa004b00070059000700b0
:1016a40006000700a0fe0700d2fd070045fe070064
:1016b4004eff07000080fa00000006000000fa0058
:1016c4000001eb0060042000710520002374200059
:1016d4008049780081497800824978004427ef00e6
:1016e4004827ef004027ef000080fa0000000600c2
:020000040000fa
:1016f40000080000020000000000000026080000ae
:1017040002000000000000002808000002000000a1
:101714000000000006080000200000000000000097
:10172400020800000200000002000000ffff0000a9
:101734000408000002000000000000000000000097
:020000040000fa
:10174400c402a8000800090000000000c402a900a7
:10175400000000000000000000000000000006007f
:10176400c402a8000300090000000000c402a9008c
:10177400060009000000000000000600190309002b
:1017840000000000000006000000fa0042c7a900a3
:101794003136800000fe2f00008060002001b3007d
:1017a4003036880042c7a8000080fa000000060016
:1017b4000200fa00000f78001e007800000c880078
:1017c4000080fa00000006000000fa00c422ef00c6
:1017d400cc22ef00e001200000168800f0eb2f007f
:1017e400401688006820ef006a20ef00c622ef0050
:1017f400ce22ef00f0e32900601988000080fa008f
:10180400000006000000fa000080fa000000060054
:020000040000fa
:020000040001f9
:0457f8009ff9000015
:020000040000fa
:020000040001f9
:0457fc007f3f0000eb
:00000001FF
