:020000040000fa
:080000000002040000000000f2
:020000040000fa
:04000800c80200002a
:020000040000fa
:04000c007e0600006c
:020000040000fa
:040010009006000056
:020000040000fa
:04001400860600005c
:020000040000fa
:040018009806000046
:020000040000fa
:04001c00c802000016
:020000040000fa
:04002000c802000012
:020000040000fa
:04002400c80200000e
:020000040000fa
:04002800c80200000a
:020000040000fa
:04002c00c802000006
:020000040000fa
:04003000c802000002
:020000040000fa
:04003400c8020000fe
:020000040000fa
:04003800c8020000fa
:020000040000fa
:04003c00c8020000f6
:020000040000fa
:04004000c8020000f2
:020000040000fa
:04004400c8020000ee
:020000040000fa
:04004800c8020000ea
:020000040000fa
:04004c00c8020000e6
:020000040000fa
:04005000c8020000e2
:020000040000fa
:04005400c8020000de
:020000040000fa
:04005800c8020000da
:020000040000fa
:04005c00c8020000d6
:020000040000fa
:04006000c8020000d2
:020000040000fa
:04006400c8020000ce
:020000040000fa
:04006800c8020000ca
:020000040000fa
:04006c00c8020000c6
:020000040000fa
:04007000c8020000c2
:020000040000fa
:04007400c8020000be
:020000040000fa
:04007800c8020000ba
:020000040000fa
:04007c00c8020000b6
:020000040000fa
:04008000c8020000b2
:020000040000fa
:04008400c8020000ae
:020000040000fa
:04008800c8020000aa
:020000040000fa
:04008c00c8020000a6
:020000040000fa
:04009000c8020000a2
:020000040000fa
:04009400c80200009e
:020000040000fa
:04009800c80200009a
:020000040000fa
:04009c00c802000096
:020000040000fa
:0400a000c802000092
:020000040000fa
:0400a400c80200008e
:020000040000fa
:0400a800c80200008a
:020000040000fa
:0400ac00c802000086
:020000040000fa
:0400b000c802000082
:020000040000fa
:0400b400c80200007e
:020000040000fa
:0400b800c80200007a
:020000040000fa
:0400bc00c802000076
:020000040000fa
:0400c000c802000072
:020000040000fa
:0400c400c80200006e
:020000040000fa
:0400c800c80200006a
:020000040000fa
:0400cc00c802000066
:020000040000fa
:0400d000c802000062
:020000040000fa
:0400d400c80200005e
:020000040000fa
:0400d800c80200005a
:020000040000fa
:0400dc00c802000056
:020000040000fa
:0400e000c802000052
:020000040000fa
:0400e400c80200004e
:020000040000fa
:0400e800c80200004a
:020000040000fa
:0400ec00c802000046
:020000040000fa
:0400f000c802000042
:020000040000fa
:0400f400c80200003e
:020000040000fa
:0400f800c80200003a
:020000040000fa
:0400fc00c802000036
:020000040000fa
:04010000c802000031
:020000040000fa
:04010400c80200002d
:020000040000fa
:04010800c802000029
:020000040000fa
:04010c00c802000025
:020000040000fa
:04011000c802000021
:020000040000fa
:04011400c80200001d
:020000040000fa
:04011800c802000019
:020000040000fa
:04011c00c802000015
:020000040000fa
:04012000c802000011
:020000040000fa
:04012400c80200000d
:020000040000fa
:04012800c802000009
:020000040000fa
:04012c00c802000005
:020000040000fa
:04013000c802000001
:020000040000fa
:04013400c8020000fd
:020000040000fa
:04013800c8020000f9
:020000040000fa
:04013c00c8020000f5
:020000040000fa
:04014000c8020000f1
:020000040000fa
:04014400c8020000ed
:020000040000fa
:04014800c8020000e9
:020000040000fa
:04020800c802000028
:020000040000fa
:04020c00c802000024
:020000040000fa
:04021000c802000020
:020000040000fa
:04021400c80200001c
:020000040000fa
:04021800c802000018
:020000040000fa
:04021c00c802000014
:020000040000fa
:04022000c802000010
:020000040000fa
:04022400c80200000c
:020000040000fa
:04022800c802000008
:020000040000fa
:04022c00c802000004
:020000040000fa
:04023000c802000000
:020000040000fa
:04023400c8020000fc
:020000040000fa
:04023800c8020000f8
:020000040000fa
:04023c00c8020000f4
:020000040000fa
:04024000c8020000f0
:020000040000fa
:04024400c8020000ec
:020000040000fa
:04024800c8020000e8
:020000040000fa
:04024c00c8020000e4
:020000040000fa
:04025000c8020000e0
:020000040000fa
:04025400c8020000dc
:020000040000fa
:04025800c8020000d8
:020000040000fa
:04025c00c8020000d4
:020000040000fa
:04026000c8020000d0
:020000040000fa
:04026400c8020000cc
:020000040000fa
:04026800c8020000c8
:020000040000fa
:04026c00c8020000c4
:020000040000fa
:04027000c8020000c0
:020000040000fa
:04027400c8020000bc
:020000040000fa
:04027800c8020000b8
:020000040000fa
:04027c00c8020000b4
:020000040000fa
:04028000c8020000b0
:020000040000fa
:04028400c8020000ac
:020000040000fa
:04028800c8020000a8
:020000040000fa
:04028c00c8020000a4
:020000040000fa
:04029000c8020000a0
:020000040000fa
:04029400c80200009c
:020000040000fa
:04029800c802000098
:020000040000fa
:04029c00c802000094
:020000040000fa
:0402a000c802000090
:020000040000fa
:0402a400c80200008c
:020000040000fa
:0402a800c802000088
:020000040000fa
:0402ac00c802000084
:020000040000fa
:0402b000c802000080
:020000040000fa
:0402b400c80200007c
:020000040000fa
:0402b800c802000078
:020000040000fa
:0402bc00c802000074
:020000040000fa
:0402c000c802000070
:020000040000fa
:0402c400c80200006c
:020000040000fa
:0402c800c802000068
:020000040000fa
:0402cc00c802000064
:020000040000fa
:0402d000c802000060
:020000040000fa
:0402d400c80200005c
:020000040000fa
:0402d800c802000058
:020000040000fa
:0402dc00c802000054
:020000040000fa
:0402e000c802000050
:020000040000fa
:0402e400c80200004c
:020000040000fa
:0402e800c802000048
:020000040000fa
:0402ec00c802000044
:020000040000fa
:0402f000c802000040
:020000040000fa
:0402f400c80200003c
:020000040000fa
:0402f800c802000038
:020000040000fa
:0402fc00c802000034
:020000040000fa
:04030000c80200002f
:020000040000fa
:04030400c80200002b
:020000040000fa
:04030800c802000027
:020000040000fa
:04030c00c802000023
:020000040000fa
:04031000c80200001f
:020000040000fa
:04031400c80200001b
:020000040000fa
:04031800c802000017
:020000040000fa
:04031c00c802000013
:020000040000fa
:04032000c80200000f
:020000040000fa
:04032400c80200000b
:020000040000fa
:04032800c802000007
:020000040000fa
:04032c00c802000003
:020000040000fa
:04033000c8020000ff
:020000040000fa
:04033400c8020000fb
:020000040000fa
:04033800c8020000f7
:020000040000fa
:04033c00c8020000f3
:020000040000fa
:04034000c8020000ef
:020000040000fa
:04034400c8020000eb
:020000040000fa
:04034800c8020000e7
:020000040000fa
:10040000af8220000e7f22000e0188000000000055
:10041000000020000000e000020032000001200087
:1004200020028800140007005b0007000000e000c5
:1004300003003a00e06c20000100200002003700b9
:100440000000200001002000810f70000100320038
:1004500014000700000020000000e000020032004d
:100460000000020000000000f6060200000000008c
:100470000040da000000fe004440a9000000200017
:100480000000e0000300320000002000a00188000e
:100490004440a800000006008a1f78008b1f7800e7
:1004a0000000060091018800800478000000eb0045
:1004b0001a003700e284440032a0b4009905ba0063
:1004c000e284440032a0b4009906ba00e2844400f9
:1004d00032a0b4000006eb00476fde00fd07b2005b
:1004e000636ce10003003a00ebff07000000eb0043
:1004f0000a003700606ce10004003a00005deb0088
:100500008b05e900fdff3e00040037006168e10053
:10051000010032000086eb000b00070019c7ba008b
:100520001905ba000e04e00003003a000a00e000da
:10053000e0ff3a0000000600fe07b2009e018800be
:100540008a047800f5ff3700395dba008b05e900b1
:100550000c003200295dba008b05e900080032006a
:100560000c00e00003003a00e284440032a0b40032
:10057000f5ff370019ddba008b05e900faff3a00f4
:100580008904e800e184440032a0b40000000600c1
:0c0590000040da000000fe000000050042
:020000040000fa
:10059c000000fa008021ef008221ef00e000200033
:1005ac00200c8800200c8000004078006740600020
:1005bc000080fb00204088000080fa00000006004c
:1005cc000000fa0020048000640060000000e000dd
:1005dc00010032008440a9000080fa0000000600ef
:1005ec000000fa0020408000004078006740600066
:1005fc000080fb0067006000220c800081ff2f0050
:10060c008100610001007000200c88000080fa005d
:10061c00000006000000fa00210c800080ff2f0073
:10062c0000806000200c88000080fa0000000600aa
:10063c000200fa00000f78009e007800110c880070
:10064c000080fa00000006000400fa00000f780099
:10065c00110798009e007800110c88009e009000f5
:10066c00010c88000080fa00000006000400fa006b
:10067c00000f7800110798009e007800110c88007c
:10068c009e009000010c88000080fa00000006001b
:10069c000400fa00000f7800110798009e00780003
:1006ac00110c88009e009000010c88000080fa005c
:1006bc00000006000200fa00000f78009e0078008f
:1006cc00010c88000080fa00000006000200fa000d
:1006dc00000f78009e007800110c88000080fa0052
:1006ec00000006000000fa00200480004200de003a
:1006fc00614060000080fb0000f0a7000000ea00f1
:10070c000000ea004f00de00004078000080fa0094
:10071c00000006000400fa00100798001e0090006c
:10072c000000e0000a003a00200c80004400de00cb
:10073c00614060000080fb0000f0a7000000ea00b0
:10074c000000ea004f00de00004f78000100370087
:10075c00000000001e4078000080fa000000060037
:10076c000000fa000621ef000080eb006008880012
:10077c000000280080088800608220008040eb0088
:10078c00014878000080fa00000006000000fa0022
:10079c002104800000082000008060000000e000c0
:1007ac000900320070822000104078008040e80080
:1007bc0070822000014878006082200011c0b300d4
:1007cc000148780084e0a9000080fa0000000600cf
:1007dc000200fa00000f78009e0078006108880083
:1007ec00608220008040eb00014878000080fa0015
:1007fc00000006000000fa00600880000080fa008b
:10080c00000006000200fa00000f78009e0078003d
:10081c0031088800608220008040eb00014878009d
:10082c000080fa00000006000000fa00300880008a
:10083c000080fa00000006000000fa006082200030
:10084c008040eb000148780011e1a8000080fa001c
:10085c00000006000000fa0011e1a9000080fa0077
:10086c00000006000200fa0060822000104f7800a1
:10087c001e4078000004e00003003200608220007b
:10088c008040eb00014878001e4078000080fa00a0
:10089c00000006000000fa00708220001040780072
:1008ac000080fb000080fa00000006000000fa0047
:1008bc00708220008040eb00014878000080fa0034
:1008cc00000006000000fa000a21ef0000c4290015
:1008dc0070088800000128009008880080822000a1
:1008ec008040eb00014878000080fa000000060010
:1008fc000000fa002104800000102000008060003d
:10090c000000e000090032009082200010407800c6
:10091c008040e8009082200001487800808220000e
:10092c0011c0b300014878008500a9000080fa00ce
:10093c00000006000200fa00000f78009e0078000c
:10094c0071088800808220008040eb00014878000c
:10095c000080fa00000006000000fa007008800019
:10096c000080fa00000006000200fa00000f780078
:10097c009e00780051088800808220008040eb00a7
:10098c00014878000080fa00000006000000fa0020
:10099c00500880000080fa00000006000000fa00f9
:1009ac00808220008040eb000148780013e1a80011
:1009bc000080fa00000006000000fa0013e1a90014
:1009cc000080fa00000006000200fa00808220007d
:1009dc00104f78001e4078000004e0000300320045
:1009ec00808220008040eb00014878001e40780097
:1009fc000080fa00000006000000fa00908220003f
:100a0c00104078000080fb000080fa000000060017
:100a1c000000fa00908220008040eb000148780032
:100a2c000080fa00000006000000fa00c902a900cc
:100a3c00c922a80042c7a9007134800000fe2f0013
:100a4c00008060009000b3007034880042c7a8009a
:100a5c0042e1a800110a800080ff2f000080600096
:100a6c000000a000100a88001021ef000080eb00ad
:100a7c006008880081088000f0fc2f000080600076
:100a8c000040a000800888000080fa0000000600ea
:100a9c000800fa00cb02a90011e1a900110a80009c
:100aac0080ff2f0000806000100a880002003700d1
:100abc00000a8000000f7800100a800068006000b7
:100acc000000e000faff3a000621ef000421ef00dd
:100adc000021ef00800c2000100888008460a90021
:100aec0011e1a800110a800080ff2f000080600037
:100afc000000a000100a8800cb02a800000028000b
:100b0c0020088800000000002004800068006000bd
:100b1c000000e000fcff3200cb02a90040062000e0
:100b2c0059000700010a800011079800010a800093
:100b3c0021079800ae0090001e009000008050002d
:100b4c00300798003e0090000080fa00000006007c
:100b5c000000fa0010082000100a8800100a80001b
:100b6c0000407800674060000080fb000040880077
:100b7c000080fa00000006000000fa00200480004b
:100b8c00620060000000e000010032008420a90037
:100b9c000080fa00000006000000fa00004080000f
:100bac0000407800674060000080fb006700600038
:100bbc00120a800081ff2f0081006100010070008b
:100bcc00100a88000080fa00000006000000fa00fd
:100bdc00110a800080ff2f0000806000100a88003e
:100bec000080fa00000006000000fa00000a8000f5
:100bfc000080fa00000006000000fa00100a8000d5
:100c0c004400de00614060000080fb0000f0a700a3
:100c1c000000ea000000ea004f00de00004078000f
:100c2c000080fa00000006000000fa00100a8000a4
:100c3c006800600000f0a7000000ea000000e90076
:100c4c004f00de00004078000080fa000000060033
:100c5c000000fa0010002800200888000021ef0096
:100c6c00f0e72300100888008460a9000000000051
:100c7c0020048000680060000000e000fcff3200ef
:100c8c000080fa00000006000200fa00000f780055
:100c9c0001003700eeff07001e00780000f0a700ef
:100cac000000ea000000ea004f00de00004078007f
:100cbc001e0fe9000004e000f6ff3a000080fa0085
:100ccc0000000600000f78009e007800114088009c
:100cdc00ffff37000000fa006080200080077800da
:100cec00e0812000000188000080fa00000006006e
:100cfc003600f8008020a9000000eb00f1ff07008f
:100d0c003600f800f3ff07008040a9001000200017
:100d1c00ecff07003600f8008060a90020002000de
:100d2c00e8ff07003600f8008080a90030002000a2
:100d3c00e4ff07000000fa004a0007005800070013
:100d4c0006000700dffe070011fe070084fe070007
:100d5c007fff07000080fa00000006000000fa0088
:100d6c000001eb00600420007105200023742000ba
:100d7c008049780081497800824978004427ef0047
:100d8c004827ef004027ef000080fa000000060023
:020000040000fa
:100d9c00000800000200000000000000260800000f
:100dac000200000000000000280800000200000003
:100dbc0000000000060800002000000000000000f9
:100dcc00020800000200000002000000ffff00000b
:100ddc0004080000020000000000000000000000f9
:020000040000fa
:100dec000000fa00d3ff070002000700060007000e
:100dfc00feff37000000fa000a0007000aff070098
:100e0c000080fa00000006000200fa0020ff070034
:100e1c00000f780000000000000000000080fa00c5
:100e2c00000006000000fa0042c7a900313680001d
:100e3c0000fe2f00008060002001b30030368800d7
:100e4c0042c7a8000080fa00000006000200fa0069
:100e5c00000f78001e007800000c88000080fa005b
:100e6c00000006000000fa00c422ef00cc22ef00c4
:100e7c00e001200000168800f0eb2f0040168800df
:100e8c006820ef006a20ef00c622ef00ce22ef00b0
:100e9c00f0e32900601988000080fa0000000600c9
:0c0eac000000fa000080fa0000000600c0
:020000040000fa
:020000040001f9
:0457f8009ff9000015
:020000040000fa
:020000040001f9
:0457fc007f3f0000eb
:00000001FF
